{
  "abi": [
    {
      "inputs": [
        {
          "internalType": "contract ERC20",
          "name": "_asset",
          "type": "address"
        },
        {
          "internalType": "string",
          "name": "_name",
          "type": "string"
        },
        {
          "internalType": "string",
          "name": "_symbol",
          "type": "string"
        },
        {
          "internalType": "address",
          "name": "_rewardDestination",
          "type": "address"
        },
        {
          "internalType": "contract ILQTYStaking",
          "name": "_lqtyStaking",
          "type": "address"
        }
      ],
      "stateMutability": "nonpayable",
      "type": "constructor"
    },
    {
      "anonymous": false,
      "inputs": [
        {
          "indexed": true,
          "internalType": "address",
          "name": "owner",
          "type": "address"
        },
        {
          "indexed": true,
          "internalType": "address",
          "name": "spender",
          "type": "address"
        },
        {
          "indexed": false,
          "internalType": "uint256",
          "name": "amount",
          "type": "uint256"
        }
      ],
      "name": "Approval",
      "type": "event"
    },
    {
      "anonymous": false,
      "inputs": [
        {
          "indexed": true,
          "internalType": "address",
          "name": "caller",
          "type": "address"
        },
        {
          "indexed": true,
          "internalType": "address",
          "name": "owner",
          "type": "address"
        },
        {
          "indexed": false,
          "internalType": "uint256",
          "name": "assets",
          "type": "uint256"
        },
        {
          "indexed": false,
          "internalType": "uint256",
          "name": "shares",
          "type": "uint256"
        }
      ],
      "name": "Deposit",
      "type": "event"
    },
    {
      "anonymous": false,
      "inputs": [
        {
          "indexed": true,
          "internalType": "address",
          "name": "newDestination",
          "type": "address"
        }
      ],
      "name": "RewardDestinationUpdate",
      "type": "event"
    },
    {
      "anonymous": false,
      "inputs": [
        {
          "indexed": false,
          "internalType": "string",
          "name": "",
          "type": "string"
        }
      ],
      "name": "Sup",
      "type": "event"
    },
    {
      "anonymous": false,
      "inputs": [
        {
          "indexed": true,
          "internalType": "address",
          "name": "from",
          "type": "address"
        },
        {
          "indexed": true,
          "internalType": "address",
          "name": "to",
          "type": "address"
        },
        {
          "indexed": false,
          "internalType": "uint256",
          "name": "amount",
          "type": "uint256"
        }
      ],
      "name": "Transfer",
      "type": "event"
    },
    {
      "anonymous": false,
      "inputs": [
        {
          "indexed": true,
          "internalType": "address",
          "name": "caller",
          "type": "address"
        },
        {
          "indexed": true,
          "internalType": "address",
          "name": "receiver",
          "type": "address"
        },
        {
          "indexed": true,
          "internalType": "address",
          "name": "owner",
          "type": "address"
        },
        {
          "indexed": false,
          "internalType": "uint256",
          "name": "assets",
          "type": "uint256"
        },
        {
          "indexed": false,
          "internalType": "uint256",
          "name": "shares",
          "type": "uint256"
        }
      ],
      "name": "Withdraw",
      "type": "event"
    },
    {
      "inputs": [],
      "name": "DOMAIN_SEPARATOR",
      "outputs": [
        {
          "internalType": "bytes32",
          "name": "",
          "type": "bytes32"
        }
      ],
      "stateMutability": "view",
      "type": "function"
    },
    {
      "inputs": [],
      "name": "LUSD",
      "outputs": [
        {
          "internalType": "contract ERC20",
          "name": "",
          "type": "address"
        }
      ],
      "stateMutability": "view",
      "type": "function"
    },
    {
      "inputs": [],
      "name": "WETH",
      "outputs": [
        {
          "internalType": "contract WETHInterface",
          "name": "",
          "type": "address"
        }
      ],
      "stateMutability": "view",
      "type": "function"
    },
    {
      "inputs": [
        {
          "internalType": "address",
          "name": "",
          "type": "address"
        },
        {
          "internalType": "address",
          "name": "",
          "type": "address"
        }
      ],
      "name": "allowance",
      "outputs": [
        {
          "internalType": "uint256",
          "name": "",
          "type": "uint256"
        }
      ],
      "stateMutability": "view",
      "type": "function"
    },
    {
      "inputs": [
        {
          "internalType": "address",
          "name": "spender",
          "type": "address"
        },
        {
          "internalType": "uint256",
          "name": "amount",
          "type": "uint256"
        }
      ],
      "name": "approve",
      "outputs": [
        {
          "internalType": "bool",
          "name": "",
          "type": "bool"
        }
      ],
      "stateMutability": "nonpayable",
      "type": "function"
    },
    {
      "inputs": [],
      "name": "asset",
      "outputs": [
        {
          "internalType": "contract ERC20",
          "name": "",
          "type": "address"
        }
      ],
      "stateMutability": "view",
      "type": "function"
    },
    {
      "inputs": [
        {
          "internalType": "address",
          "name": "user",
          "type": "address"
        }
      ],
      "name": "assetsOf",
      "outputs": [
        {
          "internalType": "uint256",
          "name": "",
          "type": "uint256"
        }
      ],
      "stateMutability": "view",
      "type": "function"
    },
    {
      "inputs": [
        {
          "internalType": "address",
          "name": "",
          "type": "address"
        }
      ],
      "name": "balanceOf",
      "outputs": [
        {
          "internalType": "uint256",
          "name": "",
          "type": "uint256"
        }
      ],
      "stateMutability": "view",
      "type": "function"
    },
    {
      "inputs": [],
      "name": "claimRewards",
      "outputs": [],
      "stateMutability": "nonpayable",
      "type": "function"
    },
    {
      "inputs": [
        {
          "internalType": "uint256",
          "name": "shares",
          "type": "uint256"
        }
      ],
      "name": "convertToAssets",
      "outputs": [
        {
          "internalType": "uint256",
          "name": "",
          "type": "uint256"
        }
      ],
      "stateMutability": "view",
      "type": "function"
    },
    {
      "inputs": [
        {
          "internalType": "uint256",
          "name": "assets",
          "type": "uint256"
        }
      ],
      "name": "convertToShares",
      "outputs": [
        {
          "internalType": "uint256",
          "name": "",
          "type": "uint256"
        }
      ],
      "stateMutability": "view",
      "type": "function"
    },
    {
      "inputs": [],
      "name": "decimals",
      "outputs": [
        {
          "internalType": "uint8",
          "name": "",
          "type": "uint8"
        }
      ],
      "stateMutability": "view",
      "type": "function"
    },
    {
      "inputs": [
        {
          "internalType": "uint256",
          "name": "assets",
          "type": "uint256"
        },
        {
          "internalType": "address",
          "name": "receiver",
          "type": "address"
        }
      ],
      "name": "deposit",
      "outputs": [
        {
          "internalType": "uint256",
          "name": "shares",
          "type": "uint256"
        }
      ],
      "stateMutability": "nonpayable",
      "type": "function"
    },
    {
      "inputs": [],
      "name": "lqtyStaking",
      "outputs": [
        {
          "internalType": "contract ILQTYStaking",
          "name": "",
          "type": "address"
        }
      ],
      "stateMutability": "view",
      "type": "function"
    },
    {
      "inputs": [
        {
          "internalType": "address",
          "name": "",
          "type": "address"
        }
      ],
      "name": "maxDeposit",
      "outputs": [
        {
          "internalType": "uint256",
          "name": "",
          "type": "uint256"
        }
      ],
      "stateMutability": "view",
      "type": "function"
    },
    {
      "inputs": [
        {
          "internalType": "address",
          "name": "",
          "type": "address"
        }
      ],
      "name": "maxMint",
      "outputs": [
        {
          "internalType": "uint256",
          "name": "",
          "type": "uint256"
        }
      ],
      "stateMutability": "view",
      "type": "function"
    },
    {
      "inputs": [
        {
          "internalType": "address",
          "name": "owner",
          "type": "address"
        }
      ],
      "name": "maxRedeem",
      "outputs": [
        {
          "internalType": "uint256",
          "name": "",
          "type": "uint256"
        }
      ],
      "stateMutability": "view",
      "type": "function"
    },
    {
      "inputs": [
        {
          "internalType": "address",
          "name": "owner",
          "type": "address"
        }
      ],
      "name": "maxWithdraw",
      "outputs": [
        {
          "internalType": "uint256",
          "name": "",
          "type": "uint256"
        }
      ],
      "stateMutability": "view",
      "type": "function"
    },
    {
      "inputs": [
        {
          "internalType": "uint256",
          "name": "shares",
          "type": "uint256"
        },
        {
          "internalType": "address",
          "name": "receiver",
          "type": "address"
        }
      ],
      "name": "mint",
      "outputs": [
        {
          "internalType": "uint256",
          "name": "assets",
          "type": "uint256"
        }
      ],
      "stateMutability": "nonpayable",
      "type": "function"
    },
    {
      "inputs": [],
      "name": "name",
      "outputs": [
        {
          "internalType": "string",
          "name": "",
          "type": "string"
        }
      ],
      "stateMutability": "view",
      "type": "function"
    },
    {
      "inputs": [
        {
          "internalType": "address",
          "name": "",
          "type": "address"
        }
      ],
      "name": "nonces",
      "outputs": [
        {
          "internalType": "uint256",
          "name": "",
          "type": "uint256"
        }
      ],
      "stateMutability": "view",
      "type": "function"
    },
    {
      "inputs": [
        {
          "internalType": "address",
          "name": "owner",
          "type": "address"
        },
        {
          "internalType": "address",
          "name": "spender",
          "type": "address"
        },
        {
          "internalType": "uint256",
          "name": "value",
          "type": "uint256"
        },
        {
          "internalType": "uint256",
          "name": "deadline",
          "type": "uint256"
        },
        {
          "internalType": "uint8",
          "name": "v",
          "type": "uint8"
        },
        {
          "internalType": "bytes32",
          "name": "r",
          "type": "bytes32"
        },
        {
          "internalType": "bytes32",
          "name": "s",
          "type": "bytes32"
        }
      ],
      "name": "permit",
      "outputs": [],
      "stateMutability": "nonpayable",
      "type": "function"
    },
    {
      "inputs": [
        {
          "internalType": "uint256",
          "name": "assets",
          "type": "uint256"
        }
      ],
      "name": "previewDeposit",
      "outputs": [
        {
          "internalType": "uint256",
          "name": "",
          "type": "uint256"
        }
      ],
      "stateMutability": "view",
      "type": "function"
    },
    {
      "inputs": [
        {
          "internalType": "uint256",
          "name": "shares",
          "type": "uint256"
        }
      ],
      "name": "previewMint",
      "outputs": [
        {
          "internalType": "uint256",
          "name": "",
          "type": "uint256"
        }
      ],
      "stateMutability": "view",
      "type": "function"
    },
    {
      "inputs": [
        {
          "internalType": "uint256",
          "name": "shares",
          "type": "uint256"
        }
      ],
      "name": "previewRedeem",
      "outputs": [
        {
          "internalType": "uint256",
          "name": "",
          "type": "uint256"
        }
      ],
      "stateMutability": "view",
      "type": "function"
    },
    {
      "inputs": [
        {
          "internalType": "uint256",
          "name": "assets",
          "type": "uint256"
        }
      ],
      "name": "previewWithdraw",
      "outputs": [
        {
          "internalType": "uint256",
          "name": "",
          "type": "uint256"
        }
      ],
      "stateMutability": "view",
      "type": "function"
    },
    {
      "inputs": [
        {
          "internalType": "uint256",
          "name": "shares",
          "type": "uint256"
        },
        {
          "internalType": "address",
          "name": "receiver",
          "type": "address"
        },
        {
          "internalType": "address",
          "name": "owner",
          "type": "address"
        }
      ],
      "name": "redeem",
      "outputs": [
        {
          "internalType": "uint256",
          "name": "assets",
          "type": "uint256"
        }
      ],
      "stateMutability": "nonpayable",
      "type": "function"
    },
    {
      "inputs": [],
      "name": "rewardDestination",
      "outputs": [
        {
          "internalType": "address payable",
          "name": "",
          "type": "address"
        }
      ],
      "stateMutability": "view",
      "type": "function"
    },
    {
      "inputs": [
        {
          "internalType": "address",
          "name": "newDestination",
          "type": "address"
        }
      ],
      "name": "setRewardDestination",
      "outputs": [],
      "stateMutability": "nonpayable",
      "type": "function"
    },
    {
      "inputs": [],
      "name": "symbol",
      "outputs": [
        {
          "internalType": "string",
          "name": "",
          "type": "string"
        }
      ],
      "stateMutability": "view",
      "type": "function"
    },
    {
      "inputs": [],
      "name": "totalAssets",
      "outputs": [
        {
          "internalType": "uint256",
          "name": "",
          "type": "uint256"
        }
      ],
      "stateMutability": "view",
      "type": "function"
    },
    {
      "inputs": [],
      "name": "totalSupply",
      "outputs": [
        {
          "internalType": "uint256",
          "name": "",
          "type": "uint256"
        }
      ],
      "stateMutability": "view",
      "type": "function"
    },
    {
      "inputs": [
        {
          "internalType": "address",
          "name": "to",
          "type": "address"
        },
        {
          "internalType": "uint256",
          "name": "amount",
          "type": "uint256"
        }
      ],
      "name": "transfer",
      "outputs": [
        {
          "internalType": "bool",
          "name": "",
          "type": "bool"
        }
      ],
      "stateMutability": "nonpayable",
      "type": "function"
    },
    {
      "inputs": [
        {
          "internalType": "address",
          "name": "from",
          "type": "address"
        },
        {
          "internalType": "address",
          "name": "to",
          "type": "address"
        },
        {
          "internalType": "uint256",
          "name": "amount",
          "type": "uint256"
        }
      ],
      "name": "transferFrom",
      "outputs": [
        {
          "internalType": "bool",
          "name": "",
          "type": "bool"
        }
      ],
      "stateMutability": "nonpayable",
      "type": "function"
    },
    {
      "inputs": [
        {
          "internalType": "uint256",
          "name": "assets",
          "type": "uint256"
        },
        {
          "internalType": "address",
          "name": "receiver",
          "type": "address"
        },
        {
          "internalType": "address",
          "name": "owner",
          "type": "address"
        }
      ],
      "name": "withdraw",
      "outputs": [
        {
          "internalType": "uint256",
          "name": "shares",
          "type": "uint256"
        }
      ],
      "stateMutability": "nonpayable",
      "type": "function"
    },
    {
      "stateMutability": "payable",
      "type": "receive"
    }
  ],
  "bytecode": {
    "object": "0x6101206040523480156200001257600080fd5b50604051620024a7380380620024a78339810160408190526200003591620003b7565b8484848181846001600160a01b031663313ce5676040518163ffffffff1660e01b8152600401602060405180830381865afa15801562000079573d6000803e3d6000fd5b505050506040513d601f19601f820116820180604052508101906200009f919062000463565b8251620000b49060009060208601906200022b565b508151620000ca9060019060208501906200022b565b5060ff81166080524660a052620000e06200018f565b60c052505050506001600160a01b0391821660e05250600680546001600160a01b03191684831617905581811661010081905260405163095ea7b360e01b8152600481019190915260001960248201529086169063095ea7b3906044016020604051808303816000875af11580156200015d573d6000803e3d6000fd5b505050506040513d601f19601f820116820180604052508101906200018391906200048f565b50505050505062000594565b60007f8b73c3c69bb8fe3d512ecc4cf759cc79239f7b179b0ffacaa9a75d522b39400f6000604051620001c39190620004f0565b6040805191829003822060208301939093528101919091527fc89efdaa54c0f20c7adf612882df0950f5a951637e0307cdcb4c672f298b8bc660608201524660808201523060a082015260c00160405160208183030381529060405280519060200120905090565b8280546200023990620004b3565b90600052602060002090601f0160209004810192826200025d5760008555620002a8565b82601f106200027857805160ff1916838001178555620002a8565b82800160010185558215620002a8579182015b82811115620002a85782518255916020019190600101906200028b565b50620002b6929150620002ba565b5090565b5b80821115620002b65760008155600101620002bb565b6001600160a01b0381168114620002e757600080fd5b50565b634e487b7160e01b600052604160045260246000fd5b600082601f8301126200031257600080fd5b81516001600160401b03808211156200032f576200032f620002ea565b604051601f8301601f19908116603f011681019082821181831017156200035a576200035a620002ea565b816040528381526020925086838588010111156200037757600080fd5b600091505b838210156200039b57858201830151818301840152908201906200037c565b83821115620003ad5760008385830101525b9695505050505050565b600080600080600060a08688031215620003d057600080fd5b8551620003dd81620002d1565b60208701519095506001600160401b0380821115620003fb57600080fd5b6200040989838a0162000300565b955060408801519150808211156200042057600080fd5b506200042f8882890162000300565b93505060608601516200044281620002d1565b60808701519092506200045581620002d1565b809150509295509295909350565b6000602082840312156200047657600080fd5b815160ff811681146200048857600080fd5b9392505050565b600060208284031215620004a257600080fd5b815180151581146200048857600080fd5b600181811c90821680620004c857607f821691505b60208210811415620004ea57634e487b7160e01b600052602260045260246000fd5b50919050565b600080835481600182811c9150808316806200050d57607f831692505b60208084108214156200052e57634e487b7160e01b86526022600452602486fd5b818015620005455760018114620005575762000586565b60ff1986168952848901965062000586565b60008a81526020902060005b868110156200057e5781548b82015290850190830162000563565b505084890196505b509498975050505050505050565b60805160a05160c05160e05161010051611e9662000611600039600081816105050152818161071d01528181610a4b0152818161197201526119f10152600081816103a801528181610f5a015281816110890152818161128401526113cd01526000610a13015260006109e3015260006103360152611e966000f3fe6080604052600436106102085760003560e01c80638457d06711610118578063c63d75b6116100a0578063d505accf1161006f578063d505accf14610637578063d905777e14610657578063dd62ed3e1461068d578063ef8b30f7146106c5578063fda45d86146106e557600080fd5b8063c63d75b6146103e2578063c6e6f592146105cf578063ce96cb77146105ef578063cf59d5631461060f57600080fd5b8063a9059cbb116100e7578063a9059cbb14610527578063ad5c464814610547578063b3d7f6b91461056f578063b460af941461058f578063ba087652146105af57600080fd5b80638457d0671461049e57806394bf804d146104be57806395d89b41146104de578063a3a64017146104f357600080fd5b8063313ce5671161019b578063402d267d1161016a578063402d267d146103e25780634cdad506146104045780636e553f651461042457806370a08231146104445780637ecebe001461047157600080fd5b8063313ce567146103245780633644e5151461036a578063372500ab1461037f57806338d52e0f1461039657600080fd5b80630a28a477116101d75780630a28a477146102ae57806318160ddd146102ce57806323b872dd146102e45780632c62fa101461030457600080fd5b806301e1d1141461021457806306fdde031461023c57806307a2d13a1461025e578063095ea7b31461027e57600080fd5b3661020f57005b600080fd5b34801561022057600080fd5b50610229610705565b6040519081526020015b60405180910390f35b34801561024857600080fd5b50610251610795565b6040516102339190611af8565b34801561026a57600080fd5b50610229610279366004611b0b565b610823565b34801561028a57600080fd5b5061029e610299366004611b40565b610850565b6040519015158152602001610233565b3480156102ba57600080fd5b506102296102c9366004611b0b565b6108bd565b3480156102da57600080fd5b5061022960025481565b3480156102f057600080fd5b5061029e6102ff366004611b6a565b6108dd565b34801561031057600080fd5b5061022961031f366004611ba6565b6109bd565b34801561033057600080fd5b506103587f000000000000000000000000000000000000000000000000000000000000000081565b60405160ff9091168152602001610233565b34801561037657600080fd5b506102296109df565b34801561038b57600080fd5b50610394610a35565b005b3480156103a257600080fd5b506103ca7f000000000000000000000000000000000000000000000000000000000000000081565b6040516001600160a01b039091168152602001610233565b3480156103ee57600080fd5b506102296103fd366004611ba6565b5060001990565b34801561041057600080fd5b5061022961041f366004611b0b565b610ef5565b34801561043057600080fd5b5061022961043f366004611bc1565b610f00565b34801561045057600080fd5b5061022961045f366004611ba6565b60036020526000908152604090205481565b34801561047d57600080fd5b5061022961048c366004611ba6565b60056020526000908152604090205481565b3480156104aa57600080fd5b506103946104b9366004611ba6565b610fdc565b3480156104ca57600080fd5b506102296104d9366004611bc1565b61106f565b3480156104ea57600080fd5b5061025161110b565b3480156104ff57600080fd5b506103ca7f000000000000000000000000000000000000000000000000000000000000000081565b34801561053357600080fd5b5061029e610542366004611b40565b611118565b34801561055357600080fd5b506103ca73c02aaa39b223fe8d0a0e5c4f27ead9083c756cc281565b34801561057b57600080fd5b5061022961058a366004611b0b565b61117e565b34801561059b57600080fd5b506102296105aa366004611bed565b61119d565b3480156105bb57600080fd5b506102296105ca366004611bed565b6112ab565b3480156105db57600080fd5b506102296105ea366004611b0b565b6113f4565b3480156105fb57600080fd5b5061022961060a366004611ba6565b611414565b34801561061b57600080fd5b506103ca735f98805a4e8be255a32880fdec7f6728c6568ba081565b34801561064357600080fd5b50610394610652366004611c29565b611436565b34801561066357600080fd5b50610229610672366004611ba6565b6001600160a01b031660009081526003602052604090205490565b34801561069957600080fd5b506102296106a8366004611c9c565b600460209081526000928352604080842090915290825290205481565b3480156106d157600080fd5b506102296106e0366004611b0b565b61167a565b3480156106f157600080fd5b506006546103ca906001600160a01b031681565b6040516305a4d3f160e21b81523060048201526000907f00000000000000000000000000000000000000000000000000000000000000006001600160a01b0316906316934fc490602401602060405180830381865afa15801561076c573d6000803e3d6000fd5b505050506040513d601f19601f820116820180604052508101906107909190611cc6565b905090565b600080546107a290611cdf565b80601f01602080910402602001604051908101604052809291908181526020018280546107ce90611cdf565b801561081b5780601f106107f05761010080835404028352916020019161081b565b820191906000526020600020905b8154815290600101906020018083116107fe57829003601f168201915b505050505081565b60025460009080156108475761084261083a610705565b849083611685565b610849565b825b9392505050565b3360008181526004602090815260408083206001600160a01b038716808552925280832085905551919290917f8c5be1e5ebec7d5bd14f71427d1e84f3dd0314c0f7b2291e5b200ac8c7c3b925906108ab9086815260200190565b60405180910390a35060015b92915050565b600254600090801561084757610842816108d5610705565b8591906116a4565b6001600160a01b03831660009081526004602090815260408083203384529091528120546000198114610939576109148382611d30565b6001600160a01b03861660009081526004602090815260408083203384529091529020555b6001600160a01b03851660009081526003602052604081208054859290610961908490611d30565b90915550506001600160a01b0380851660008181526003602052604090819020805487019055519091871690600080516020611e6a833981519152906109aa9087815260200190565b60405180910390a3506001949350505050565b6001600160a01b0381166000908152600360205260408120546108b790610ef5565b60007f00000000000000000000000000000000000000000000000000000000000000004614610a10576107906116d2565b507f000000000000000000000000000000000000000000000000000000000000000090565b6040516305c2fbcf60e31b8152600060048201527f00000000000000000000000000000000000000000000000000000000000000006001600160a01b031690632e17de7890602401600060405180830381600087803b158015610a9757600080fd5b505af1158015610aab573d6000803e3d6000fd5b50505050610ad960405180604001604052806008815260200167032ba342130b61d160c51b8152504761176c565b73c02aaa39b223fe8d0a0e5c4f27ead9083c756cc26001600160a01b031663d0e30db0476040518263ffffffff1660e01b81526004016000604051808303818588803b158015610b2857600080fd5b505af1158015610b3c573d6000803e3d6000fd5b50506040516370a0823160e01b81523060048201526000935073c02aaa39b223fe8d0a0e5c4f27ead9083c756cc292506370a082319150602401602060405180830381865afa158015610b93573d6000803e3d6000fd5b505050506040513d601f19601f82011682018060405250810190610bb79190611cc6565b9050610bf86040518060400160405280601a81526020017f5745544820696e20706c7567696e2061667465722077726170200000000000008152508261176c565b6006546040516370a0823160e01b815230600482015273c02aaa39b223fe8d0a0e5c4f27ead9083c756cc29163a9059cbb916001600160a01b039091169083906370a0823190602401602060405180830381865afa158015610c5e573d6000803e3d6000fd5b505050506040513d601f19601f82011682018060405250810190610c829190611cc6565b6040516001600160e01b031960e085901b1681526001600160a01b03909216600483015260248201526044016020604051808303816000875af1158015610ccd573d6000803e3d6000fd5b505050506040513d601f19601f82011682018060405250810190610cf19190611d47565b5060408051808201825260098152680363ab9b22130b61d160bd1b602082015290516370a0823160e01b8152306004820152610d8e9190735f98805a4e8be255a32880fdec7f6728c6568ba0906370a08231906024015b602060405180830381865afa158015610d65573d6000803e3d6000fd5b505050506040513d601f19601f82011682018060405250810190610d899190611cc6565b61176c565b6006546040516370a0823160e01b8152306004820152610e2e916001600160a01b031690735f98805a4e8be255a32880fdec7f6728c6568ba0906370a0823190602401602060405180830381865afa158015610dee573d6000803e3d6000fd5b505050506040513d601f19601f82011682018060405250810190610e129190611cc6565b735f98805a4e8be255a32880fdec7f6728c6568ba091906117b5565b604080518082018252601b81527f6c75736420696e20706c7567696e20646573696e6174696f6e3a200000000000602082015260065491516370a0823160e01b81526001600160a01b039092166004830152610ea891735f98805a4e8be255a32880fdec7f6728c6568ba0906370a0823190602401610d48565b60408051808201909152601c81527f706c7567696e20726577617264732064657374696e6174696f6e3a20000000006020820152600654610ef291906001600160a01b0316611833565b50565b60006108b782610823565b6000610f0b8361167a565b905080610f4d5760405162461bcd60e51b815260206004820152600b60248201526a5a45524f5f53484152455360a81b60448201526064015b60405180910390fd5b610f826001600160a01b037f000000000000000000000000000000000000000000000000000000000000000016333086611878565b610f8c8282611902565b60408051848152602081018390526001600160a01b0384169133917fdcbc1c05240f31ff3ad067ef1ee35ce4997762752e3a095284754544f4c709d7910160405180910390a36108b7838261195c565b6006546001600160a01b031633146110255760405162461bcd60e51b815260206004820152600c60248201526b15539055551213d49256915160a21b6044820152606401610f44565b600680546001600160a01b0319166001600160a01b0383169081179091556040517fb7e97ad603f12568684fc43c82127d953e94f3954cf36344cbbfa34d67b0b0cf90600090a250565b600061107a8361117e565b90506110b16001600160a01b037f000000000000000000000000000000000000000000000000000000000000000016333084611878565b6110bb8284611902565b60408051828152602081018590526001600160a01b0384169133917fdcbc1c05240f31ff3ad067ef1ee35ce4997762752e3a095284754544f4c709d7910160405180910390a36108b7818461195c565b600180546107a290611cdf565b33600090815260036020526040812080548391908390611139908490611d30565b90915550506001600160a01b03831660008181526003602052604090819020805485019055513390600080516020611e6a833981519152906108ab9086815260200190565b600254600090801561084757610842611195610705565b8490836116a4565b60006111a8846108bd565b9050336001600160a01b03831614611218576001600160a01b03821660009081526004602090815260408083203384529091529020546000198114611216576111f18282611d30565b6001600160a01b03841660009081526004602090815260408083203384529091529020555b505b61122284826119db565b61122c8282611a28565b60408051858152602081018390526001600160a01b03808516929086169133917ffbde797d201c681b91056529119e0b02407c7bb96a4a2c75c01fc9667232c8db910160405180910390a46108496001600160a01b037f00000000000000000000000000000000000000000000000000000000000000001684866117b5565b6000336001600160a01b0383161461131b576001600160a01b03821660009081526004602090815260408083203384529091529020546000198114611319576112f48582611d30565b6001600160a01b03841660009081526004602090815260408083203384529091529020555b505b61132484610ef5565b9050806113615760405162461bcd60e51b815260206004820152600b60248201526a5a45524f5f41535345545360a81b6044820152606401610f44565b61136b81856119db565b6113758285611a28565b60408051828152602081018690526001600160a01b03808516929086169133917ffbde797d201c681b91056529119e0b02407c7bb96a4a2c75c01fc9667232c8db910160405180910390a46108496001600160a01b037f00000000000000000000000000000000000000000000000000000000000000001684836117b5565b6002546000908015610847576108428161140c610705565b859190611685565b6001600160a01b0381166000908152600360205260408120546108b790610823565b428410156114865760405162461bcd60e51b815260206004820152601760248201527f5045524d49545f444541444c494e455f455850495245440000000000000000006044820152606401610f44565b600060016114926109df565b6001600160a01b038a811660008181526005602090815260409182902080546001810190915582517f6e71edae12b1b97f4d1f60370fef10105fa2faae0126114a169c64845d6126c98184015280840194909452938d166060840152608083018c905260a083019390935260c08083018b90528151808403909101815260e08301909152805192019190912061190160f01b6101008301526101028201929092526101228101919091526101420160408051601f198184030181528282528051602091820120600084529083018083525260ff871690820152606081018590526080810184905260a0016020604051602081039080840390855afa15801561159e573d6000803e3d6000fd5b5050604051601f1901519150506001600160a01b038116158015906115d45750876001600160a01b0316816001600160a01b0316145b6116115760405162461bcd60e51b815260206004820152600e60248201526d24a72b20a624a22fa9a4a3a722a960911b6044820152606401610f44565b6001600160a01b0390811660009081526004602090815260408083208a8516808552908352928190208990555188815291928a16917f8c5be1e5ebec7d5bd14f71427d1e84f3dd0314c0f7b2291e5b200ac8c7c3b925910160405180910390a350505050505050565b60006108b7826113f4565b82820281151584158583048514171661169d57600080fd5b0492915050565b8282028115158415858304851417166116bc57600080fd5b6001826001830304018115150290509392505050565b60007f8b73c3c69bb8fe3d512ecc4cf759cc79239f7b179b0ffacaa9a75d522b39400f60006040516117049190611d69565b6040805191829003822060208301939093528101919091527fc89efdaa54c0f20c7adf612882df0950f5a951637e0307cdcb4c672f298b8bc660608201524660808201523060a082015260c00160405160208183030381529060405280519060200120905090565b6117b18282604051602401611782929190611e05565b60408051601f198184030181529190526020810180516001600160e01b03166309710a9d60e41b179052611a8a565b5050565b600060405163a9059cbb60e01b8152836004820152826024820152602060006044836000895af13d15601f3d116001600051141617169150508061182d5760405162461bcd60e51b815260206004820152600f60248201526e1514905394d1915497d19052531151608a1b6044820152606401610f44565b50505050565b6117b18282604051602401611849929190611e27565b60408051601f198184030181529190526020810180516001600160e01b031663319af33360e01b179052611a8a565b60006040516323b872dd60e01b81528460048201528360248201528260448201526020600060648360008a5af13d15601f3d11600160005114161716915050806118fb5760405162461bcd60e51b81526020600482015260146024820152731514905394d1915497d19493d357d1905253115160621b6044820152606401610f44565b5050505050565b80600260008282546119149190611e51565b90915550506001600160a01b038216600081815260036020908152604080832080548601905551848152600080516020611e6a83398151915291015b60405180910390a35050565b60405163534a7e1d60e11b8152600481018390527f00000000000000000000000000000000000000000000000000000000000000006001600160a01b03169063a694fc3a906024015b600060405180830381600087803b1580156119bf57600080fd5b505af11580156119d3573d6000803e3d6000fd5b505050505050565b6040516305c2fbcf60e31b8152600481018390527f00000000000000000000000000000000000000000000000000000000000000006001600160a01b031690632e17de78906024016119a5565b6001600160a01b03821660009081526003602052604081208054839290611a50908490611d30565b90915550506002805482900390556040518181526000906001600160a01b03841690600080516020611e6a83398151915290602001611950565b80516a636f6e736f6c652e6c6f67602083016000808483855afa5050505050565b6000815180845260005b81811015611ad157602081850181015186830182015201611ab5565b81811115611ae3576000602083870101525b50601f01601f19169290920160200192915050565b6020815260006108496020830184611aab565b600060208284031215611b1d57600080fd5b5035919050565b80356001600160a01b0381168114611b3b57600080fd5b919050565b60008060408385031215611b5357600080fd5b611b5c83611b24565b946020939093013593505050565b600080600060608486031215611b7f57600080fd5b611b8884611b24565b9250611b9660208501611b24565b9150604084013590509250925092565b600060208284031215611bb857600080fd5b61084982611b24565b60008060408385031215611bd457600080fd5b82359150611be460208401611b24565b90509250929050565b600080600060608486031215611c0257600080fd5b83359250611c1260208501611b24565b9150611c2060408501611b24565b90509250925092565b600080600080600080600060e0888a031215611c4457600080fd5b611c4d88611b24565b9650611c5b60208901611b24565b95506040880135945060608801359350608088013560ff81168114611c7f57600080fd5b9699959850939692959460a0840135945060c09093013592915050565b60008060408385031215611caf57600080fd5b611cb883611b24565b9150611be460208401611b24565b600060208284031215611cd857600080fd5b5051919050565b600181811c90821680611cf357607f821691505b60208210811415611d1457634e487b7160e01b600052602260045260246000fd5b50919050565b634e487b7160e01b600052601160045260246000fd5b600082821015611d4257611d42611d1a565b500390565b600060208284031215611d5957600080fd5b8151801515811461084957600080fd5b600080835481600182811c915080831680611d8557607f831692505b6020808410821415611da557634e487b7160e01b86526022600452602486fd5b818015611db95760018114611dca57611df7565b60ff19861689528489019650611df7565b60008a81526020902060005b86811015611def5781548b820152908501908301611dd6565b505084890196505b509498975050505050505050565b604081526000611e186040830185611aab565b90508260208301529392505050565b604081526000611e3a6040830185611aab565b905060018060a01b03831660208301529392505050565b60008219821115611e6457611e64611d1a565b50019056feddf252ad1be2c89b69c2b068fc378daa952ba7f163c4a11628f55a4df523b3efa164736f6c634300080a000a",
    "linkReferences": {}
  }
}