{
  "abi": [
    {
      "inputs": [
        {
          "internalType": "address",
          "name": "_rewardDestination",
          "type": "address"
        },
        {
          "internalType": "contract ERC20[]",
          "name": "_rewardTokens",
          "type": "address[]"
        }
      ],
      "stateMutability": "nonpayable",
      "type": "constructor"
    },
    {
      "anonymous": false,
      "inputs": [
        {
          "indexed": true,
          "internalType": "address",
          "name": "rewardToken",
          "type": "address"
        },
        {
          "indexed": false,
          "internalType": "uint256",
          "name": "amount",
          "type": "uint256"
        }
      ],
      "name": "ClaimRewards",
      "type": "event"
    },
    {
      "anonymous": false,
      "inputs": [
        {
          "indexed": true,
          "internalType": "address",
          "name": "newDestination",
          "type": "address"
        }
      ],
      "name": "RewardDestinationUpdate",
      "type": "event"
    },
    {
      "inputs": [],
      "name": "claimRewards",
      "outputs": [],
      "stateMutability": "nonpayable",
      "type": "function"
    },
    {
      "inputs": [],
      "name": "rewardDestination",
      "outputs": [
        {
          "internalType": "address",
          "name": "",
          "type": "address"
        }
      ],
      "stateMutability": "view",
      "type": "function"
    },
    {
      "inputs": [
        {
          "internalType": "uint256",
          "name": "",
          "type": "uint256"
        }
      ],
      "name": "rewardTokens",
      "outputs": [
        {
          "internalType": "contract ERC20",
          "name": "",
          "type": "address"
        }
      ],
      "stateMutability": "view",
      "type": "function"
    },
    {
      "inputs": [
        {
          "internalType": "address",
          "name": "newDestination",
          "type": "address"
        }
      ],
      "name": "setRewardDestination",
      "outputs": [],
      "stateMutability": "nonpayable",
      "type": "function"
    }
  ],
  "bytecode": {
    "object": "0x608060405234801561001057600080fd5b506040516105df3803806105df83398101604081905261002f9161011d565b600080546001600160a01b0319166001600160a01b038416179055805161005d906001906020840190610065565b5050506101f8565b8280548282559060005260206000209081019282156100ba579160200282015b828111156100ba57825182546001600160a01b0319166001600160a01b03909116178255602090920191600190910190610085565b506100c69291506100ca565b5090565b5b808211156100c657600081556001016100cb565b6001600160a01b03811681146100f457600080fd5b50565b634e487b7160e01b600052604160045260246000fd5b8051610118816100df565b919050565b6000806040838503121561013057600080fd5b825161013b816100df565b602084810151919350906001600160401b038082111561015a57600080fd5b818601915086601f83011261016e57600080fd5b815181811115610180576101806100f7565b8060051b604051601f19603f830116810181811085821117156101a5576101a56100f7565b6040529182528482019250838101850191898311156101c357600080fd5b938501935b828510156101e8576101d98561010d565b845293850193928501926101c8565b8096505050505050509250929050565b6103d8806102076000396000f3fe608060405234801561001057600080fd5b506004361061004c5760003560e01c8063372500ab146100515780637bb7bed11461005b5780638457d0671461008a578063fda45d861461009d575b600080fd5b6100596100b0565b005b61006e610069366004610301565b6101c3565b6040516001600160a01b03909116815260200160405180910390f35b61005961009836600461031a565b6101ed565b60005461006e906001600160a01b031681565b60015460005b818110156101bf576000600182815481106100d3576100d361034a565b60009182526020822001546040516370a0823160e01b81523060048201526001600160a01b03909116925082906370a0823190602401602060405180830381865afa158015610126573d6000803e3d6000fd5b505050506040513d601f19601f8201168201806040525081019061014a9190610360565b600054909150610167906001600160a01b03848116911683610283565b816001600160a01b03167f1f89f96333d3133000ee447473151fa9606543368f02271c9d95ae14f13bcc67826040516101a291815260200190565b60405180910390a2505080806101b790610379565b9150506100b6565b5050565b600181815481106101d357600080fd5b6000918252602090912001546001600160a01b0316905081565b6000546001600160a01b0316331461023b5760405162461bcd60e51b815260206004820152600c60248201526b15539055551213d49256915160a21b60448201526064015b60405180910390fd5b600080546001600160a01b0319166001600160a01b038316908117825560405190917fb7e97ad603f12568684fc43c82127d953e94f3954cf36344cbbfa34d67b0b0cf91a250565b600060405163a9059cbb60e01b8152836004820152826024820152602060006044836000895af13d15601f3d11600160005114161716915050806102fb5760405162461bcd60e51b815260206004820152600f60248201526e1514905394d1915497d19052531151608a1b6044820152606401610232565b50505050565b60006020828403121561031357600080fd5b5035919050565b60006020828403121561032c57600080fd5b81356001600160a01b038116811461034357600080fd5b9392505050565b634e487b7160e01b600052603260045260246000fd5b60006020828403121561037257600080fd5b5051919050565b600060001982141561039b57634e487b7160e01b600052601160045260246000fd5b506001019056fea2646970667358221220edc799dc386fd2e3ba2ce7cf66be529cfaa8c24abffe6cb5570b52aa3b822d8064736f6c634300080a0033",
    "linkReferences": {}
  }
}