{
  "abi": [
    {
      "inputs": [
        {
          "internalType": "contract ERC20",
          "name": "_rewardToken",
          "type": "address"
        },
        {
          "internalType": "contract FlywheelCore",
          "name": "_flywheel",
          "type": "address"
        }
      ],
      "stateMutability": "nonpayable",
      "type": "constructor"
    },
    {
      "anonymous": false,
      "inputs": [
        {
          "indexed": false,
          "internalType": "string",
          "name": "message",
          "type": "string"
        }
      ],
      "name": "Log",
      "type": "event"
    },
    {
      "inputs": [],
      "name": "flywheel",
      "outputs": [
        {
          "internalType": "contract FlywheelCore",
          "name": "",
          "type": "address"
        }
      ],
      "stateMutability": "view",
      "type": "function"
    },
    {
      "inputs": [
        {
          "internalType": "contract ERC20",
          "name": "market",
          "type": "address"
        },
        {
          "internalType": "uint32",
          "name": "",
          "type": "uint32"
        }
      ],
      "name": "getAccruedRewards",
      "outputs": [
        {
          "internalType": "uint256",
          "name": "amount",
          "type": "uint256"
        }
      ],
      "stateMutability": "nonpayable",
      "type": "function"
    },
    {
      "inputs": [],
      "name": "rewardToken",
      "outputs": [
        {
          "internalType": "contract ERC20",
          "name": "",
          "type": "address"
        }
      ],
      "stateMutability": "view",
      "type": "function"
    }
  ],
  "bytecode": {
    "object": "0x60c060405234801561001057600080fd5b506040516106c73803806106c783398101604081905261002f916100fd565b6001600160a01b03828116608081905290821660a05261005d9082600019610064602090811b6103a717901c565b5050610137565b600060405163095ea7b360e01b8152836004820152826024820152602060006044836000895af13d15601f3d11600160005114161716915050806100df5760405162461bcd60e51b815260206004820152600e60248201526d1054141493d59157d1905253115160921b604482015260640160405180910390fd5b50505050565b6001600160a01b03811681146100fa57600080fd5b50565b6000806040838503121561011057600080fd5b825161011b816100e5565b602084015190925061012c816100e5565b809150509250929050565b60805160a05161055261017560003960008181604b0152818160df01526102ee01526000818160b001528181610275015261037801526105526000f3fe608060405234801561001057600080fd5b50600436106100415760003560e01c80637acf5b9214610046578063b334db7b1461008a578063f7c618c1146100ab575b600080fd5b61006d7f000000000000000000000000000000000000000000000000000000000000000081565b6040516001600160a01b0390911681526020015b60405180910390f35b61009d6100983660046104c6565b6100d2565b604051908152602001610081565b61006d7f000000000000000000000000000000000000000000000000000000000000000081565b6000336001600160a01b037f0000000000000000000000000000000000000000000000000000000000000000161461013d5760405162461bcd60e51b815260206004820152600960248201526808599b1e5dda19595b60ba1b60448201526064015b60405180910390fd5b6000836001600160a01b031663ef01df4f6040518163ffffffff1660e01b81526004016020604051808303816000875af115801561017f573d6000803e3d6000fd5b505050506040513d601f19601f820116820180604052508101906101a39190610508565b9050806001600160a01b031663372500ab6040518163ffffffff1660e01b8152600401600060405180830381600087803b1580156101e057600080fd5b505af19250505080156101f1575060015b610256577fcf34ef537ac33ee1ac626ca1587a0a7e8e51561e5514f8cb36afa1c5102b3bab60405161024d9060208082526016908201527521706c7567696e2e636c61696d52657761726473282960501b604082015260600190565b60405180910390a15b6040516370a0823160e01b81526001600160a01b0385811660048301527f000000000000000000000000000000000000000000000000000000000000000016906370a0823190602401602060405180830381865afa1580156102bc573d6000803e3d6000fd5b505050506040513d601f19601f820116820180604052508101906102e0919061052c565b915081156103a0576103a0847f00000000000000000000000000000000000000000000000000000000000000006001600160a01b031663f046ee5c6040518163ffffffff1660e01b8152600401602060405180830381865afa15801561034a573d6000803e3d6000fd5b505050506040513d601f19601f8201168201806040525081019061036e9190610508565b6001600160a01b037f000000000000000000000000000000000000000000000000000000000000000016919085610424565b5092915050565b600060405163095ea7b360e01b8152836004820152826024820152602060006044836000895af13d15601f3d116001600051141617169150508061041e5760405162461bcd60e51b815260206004820152600e60248201526d1054141493d59157d1905253115160921b6044820152606401610134565b50505050565b60006040516323b872dd60e01b81528460048201528360248201528260448201526020600060648360008a5af13d15601f3d11600160005114161716915050806104a75760405162461bcd60e51b81526020600482015260146024820152731514905394d1915497d19493d357d1905253115160621b6044820152606401610134565b5050505050565b6001600160a01b03811681146104c357600080fd5b50565b600080604083850312156104d957600080fd5b82356104e4816104ae565b9150602083013563ffffffff811681146104fd57600080fd5b809150509250929050565b60006020828403121561051a57600080fd5b8151610525816104ae565b9392505050565b60006020828403121561053e57600080fd5b505191905056fea164736f6c634300080a000a",
    "linkReferences": {}
  }
}